:1000000024C048C047C046C045C044C043C042C0E9
:1000100041C040C03FC062C23DC03CC03BC03AC0CE
:1000200039C038C037C036C035C034C025C2FFC162
:1000300031C030C02FC02EC02DC02CC0010204081A
:100040001020408004020108880411241FBECFEF55
:10005000D1E0DEBFCDBF11E0A0E0B1E0EEE1FEE017
:1000600002C005900D92A832B107D9F721E0A8E2AD
:10007000B1E001C01D92AD37B207E1F710E0C5E273
:10008000D0E003C02197FE01C2D6C432D107D1F718
:100090006FD2C3C6B5CFE4E4F0E0E4919091CA001A
:1000A0009F739093CA009E2F909581110CC02FB71B
:1000B000F89488B3892388BB809162009823909339
:1000C00062002FBF08958FB7F89428B3E22BE8BBE6
:1000D000209162009223909362008FBF0895CF9287
:1000E000DF92EF92FF920F931F93CF93DF936C01F8
:1000F000EB017B01E40EF51E10E000E0CE15DF05FC
:1001000061F06991D601ED91FC910190F081E02DB3
:10011000C6010995080F191FF1CFC801DF91CF91D2
:100120001F910F91FF90EF90DF90CF900895FC0109
:10013000538D448D252F30E0842F90E0821B930B4C
:10014000541710F00F96089501970895FC01918DB2
:10015000828D981761F0A28DAE0FBF2FB11D5D96F5
:100160008C91928D9F5F9F70928F90E008958FEF9A
:100170009FEF0895FC01918D828D981731F0828D4B
:10018000E80FF11D858D90E008958FEF9FEF0895A2
:10019000FC01918D228D892F90E04096821B910960
:1001A0008F7099270895FC01A48DA80FB92FB11D58
:1001B0009D962C91848D90E001968F709927848F65
:1001C000A689B7892C93A089B1898C9183708064AA
:1001D0008C93938D848D981306C00288F389E02D4B
:1001E00080818F7D80830895EF92FF920F931F93FC
:1001F000CF93DF93EC0181E0888F9B8D8C8D9813DA
:100200001AC0E889F989808185FF15C09FB7F894E5
:10021000EE89FF896083E889F98980818370806431
:1002200080839FBF81E090E0DF91CF911F910F917C
:10023000FF90EF900895F62E0B8D10E00F5F1F4F8B
:100240000F701127E02E8C8D8E110BC00FB607FC9E
:10025000FACFE889F989808185FFF5CFCE01A3DF48
:10026000F2CFEB8DEC0FFD2FF11DF5A69FB7F894A3
:100270000B8FEA89FB8980818062D2CFCF93DF9395
:10028000EC01888D8823B1F0AA89BB89E889F989B6
:100290008C9185FD03C0808186FD0CC00FB607FCE4
:1002A000F7CF8C9185FFF2CF808185FFEDCFCE0116
:1002B0007ADFEACFDF91CF9108953FB7F89480912C
:1002C0002D0190912E01A0912F01B091300122B704
:1002D00008B600FE05C02F3F19F00196A11DB11D03
:1002E0003FBFBA2FA92F982F8827BC01CD01620FDD
:1002F000711D811D911D43E0660F771F881F991F97
:100300004A95D1F70895CF92DF92EF92FF92CF9363
:10031000DF93D3DFEB0188EEC82E83E0D82EE12CEB
:10032000F12CCBDF6C1B7D0B683E7340A0F0C11439
:10033000D104E104F10439F4DF91CF91FF90EF9003
:10034000DF90CF90089581E0C81AD108E108F10844
:10035000C851DC4FE6CFC114D104E104F10409F720
:10036000EBCF2FB7F8946091290170912A01809109
:100370002B0190912C012FBF0895FC0101900020CA
:10038000E9F73197AF01481B590BBC0180E491E0BC
:10039000A6CE8F929F92AF92BF92EF92FF920F9351
:1003A0001F93CF93DF93CDB7DEB7A1970FB6F89425
:1003B000DEBF0FBECDBF162F042F19A2423008F4A6
:1003C0000AE07E0121E2E20EF11C802E912CB12C7C
:1003D000A12C612FA5019401F8D4802F622FC5D2E2
:1003E000181B1A3014F5105DF70112937F01122FBC
:1003F000732FCA01232B242B252B59F790E080E083
:10040000309711F0CF01B9DFA1960FB6F894DEBF97
:100410000FBECDBFDF91CF911F910F91FF90EF9055
:10042000BF90AF909F908F900895195CDDCF1F9281
:100430000F920FB60F9211242F933F934F935F9318
:100440006F937F938F939F93AF93BF93EF93FF939C
:1004500080E491E0A8DEFF91EF91BF91AF919F9171
:100460008F917F916F915F914F913F912F910F905D
:100470000FBE0F901F9018951F920F920FB60F92FC
:1004800011242F938F939F93EF93FF93E09150014B
:10049000F09151018081E0915601F091570182FD68
:1004A0001BC09081809159018F5F8F7020915A01FC
:1004B000821741F0E0915901F0E0E05CFE4F958F2A
:1004C00080935901FF91EF919F918F912F910F9000
:1004D0000FBE0F901F9018958081F4CF1F920F923E
:1004E0000FB60F9211242F933F938F939F93AF9347
:1004F000BF938091290190912A01A0912B01B09185
:100500002C013091280126E0230F2D3768F129E8CE
:10051000230F0396A11DB11D20932801809329016B
:1005200090932A01A0932B01B0932C0180912D016F
:1005300090912E01A0912F01B09130010196A11D43
:10054000B11D80932D0190932E01A0932F01B093A4
:100550003001BF91AF919F918F913F912F910F905B
:100560000FBE0F901F9018950296A11DB11DD4CFFC
:10057000789480B7836080BF83B7877F83BF83B75A
:10058000887F836083BF89B7816089BF8091C900FC
:10059000887F8093C9008091CA008C7F816080939E
:1005A000CA008091C900877E8093C9008091C900EC
:1005B000887F83608093C9008EB5887F8EBD8FB59C
:1005C0008C7F81608FBD8EB5877E8EBD8EB5887F16
:1005D00083608EBD80E18093670084EA8093680029
:1005E0008CEF8093660085B1887F866085B92F9AED
:1005F000E4E4F0E0E4919FB7F894209162008E2F3C
:10060000809582238093620087B3E82BE7BB9FBF6E
:10061000E0915001F091510182E08083E0914C0122
:10062000F0914D011082E0914E01F0914F01108246
:1006300010925801E0915401F091550186E08083B9
:10064000E0915201F0915301808180618083E091BB
:100650005201F0915301808188608083E0915201C2
:10066000F0915301808180688083E0915201F09184
:10067000530180818F7D80838DE089B918B887E828
:1006800085B981E008DD6DDEC0903C01D0903D0170
:10069000E0903E01F0903F016C157D058E059F05B1
:1006A00090F35FDE6F5F7F4F8F4F9F4F60933C01F2
:1006B00070933D0180933E0190933F012E9A2E99B5
:1006C000FECF86B197B120913A0130913B01820F64
:1006D000932F911D90933B0180933A0180913901B2
:1006E0008F5F80933901843670F23BDE4AE051DE41
:1006F00086E191E042DE60913A0170913B0190E029
:1007000080E04AE046DE86E191E037DE6091370125
:100710007091380190E080E04AE03BDE86E191E0B4
:100720002CDE609135017091360190E080E04AE066
:1007300030DE86E191E021DE20913A0130913B01EB
:1007400080913501909136012817390708F052C081
:10075000821B930B8536910508F44CC002DE6B01B9
:1007600080E099DC82E191E008DE609135017091D2
:10077000360180913A0190913B01681B790B90E022
:1007800080E04AE006DE86E191E0F7DD809131010C
:1007900090913201C81AD90AB60190E080E0F0D1F8
:1007A00020E030E04AE754E452D16B017C01AC0117
:1007B0009B0107D38823C1F188E191E0DEDDA3DD51
:1007C00081E069DCCEDD6B017C019DDDC0923101F1
:1007D000D0923201E0923301F0923401109236014E
:1007E00010923501109238011092370110923B019E
:1007F00010923A0186E291E0C0DD8091370190913C
:100800003801909336018093350180913A0190919F
:100810003B01909338018093370110923B01109275
:100820003A01109239012FCF2FEF3FEF4FE75FE7EB
:10083000C701B601C6D281110CC02FEF3FEF4FE7C1
:100840005FE7C701B601FFD018161CF48CE191E0F8
:10085000B5CF2FEF3FEF4FE75FE4C701B60142D2BC
:1008600018161CF480E291E0A9CF2FEF3FEF4FE77D
:100870005FECC701B601E7D087FDF4CF2AE037ED82
:1008800043EA5BE3C701B6017AD06B017C014CD12E
:100890004B015C0175D19B01AC01C701B6016ED063
:1008A0006B017C014AE0C501B40173DD84E291E093
:1008B00064DDC3E0C15009F482CF20E030E040E2C3
:1008C00051E4C701B60112D24B015C0128D16B0182
:1008D000770FEE08FF084AE0C701B601F7FE0CC02B
:1008E0006DE280E491E080DC66277727CB016C190C
:1008F0007D098E099F094AE04CDDC701B60142D14E
:100900009B01AC01C501B40139D06B017C01D2CF90
:10091000E0E4F1E01382128288EE93E0A0E0B0E020
:1009200084839583A683B78384E091E09183808359
:1009300082E890E09587848781E890E097878687B2
:1009400086E890E0918B808B85E890E0938B828B9A
:1009500084E890E0958B848B80E890E0978B868B81
:10096000118E128E138E148E0895002480FD060EB3
:10097000660F11F08695D1F7802D08955058BB274A
:10098000AA270ED075C166D130F06BD120F031F4BA
:100990009F3F11F41EF45BC10EF4E095E7FB51C1DB
:1009A000E92F77D180F3BA17620773078407950799
:1009B00018F071F49EF58FC10EF4E0950B2EBA2F4E
:1009C000A02D0B01B90190010C01CA01A001112455
:1009D000FF27591B99F0593F50F4503E68F11A1601
:1009E000F040A22F232F342F4427585FF3CF469592
:1009F00037952795A795F0405395C9F77EF41F16B4
:100A0000BA0B620B730B840BBAF09150A1F0FF0F7D
:100A1000BB1F661F771F881FC2F70EC0BA0F621F69
:100A2000731F841F48F4879577956795B795F79559
:100A30009E3F08F0B3CF9395880F08F09927EE0FEB
:100A4000979587950895D9D008F481E008950CD042
:100A50000FC107D140F0FED030F021F45F3F19F014
:100A6000F0C0511139C1F3C014D198F39923C9F3DF
:100A70005523B1F3951B550BBB27AA2762177307A4
:100A8000840738F09F5F5F4F220F331F441FAA1F58
:100A9000A9F333D00E2E3AF0E0E830D09150504018
:100AA000E695001CCAF729D0FE2F27D0660F771FC6
:100AB000881FBB1F261737074807AB07B0E809F0A8
:100AC000BB0B802DBF01FF2793585F4F2AF09E3F3D
:100AD000510568F0B6C000C15F3FECF3983EDCF30F
:100AE000869577956795B795F7959F5FC9F7880FB6
:100AF000911D9695879597F90895E1E0660F771F08
:100B0000881FBB1F621773078407BA0720F0621B98
:100B1000730B840BBA0BEE1F88F7E095089504D091
:100B20006894B111D9C00895BCD088F09F5790F057
:100B3000B92F9927B751A0F0D1F0660F771F881F02
:100B4000991F1AF0BA95C9F712C0B13081F0C3D01D
:100B5000B1E00895C0C0672F782F8827B85F39F0BB
:100B6000B93FCCF3869577956795B395D9F73EF461
:100B700090958095709561957F4F8F4F9F4F089509
:100B8000E89409C097FB3EF4909580957095619527
:100B90007F4F8F4F9F4F9923A9F0F92F96E9BB27DD
:100BA0009395F695879577956795B795F111F8CF59
:100BB000FAF4BB0F11F460FF1BC06F5F7F4F8F4FC4
:100BC0009F4F16C0882311F096E911C0772321F0BA
:100BD0009EE8872F762F05C0662371F096E8862F52
:100BE00070E060E02AF09A95660F771F881FDAF7A9
:100BF000880F9695879597F90895990F0008550FD6
:100C0000AA0BE0E8FEEF16161706E807F907C0F092
:100C100012161306E407F50798F0621B730B840B9A
:100C2000950B39F40A2661F0232B242B252B21F474
:100C300008950A2609F4A140A6958FEF811D811D14
:100C4000089597F99F6780E870E060E008959FEF4E
:100C500080EC089500240A94161617061806090653
:100C6000089500240A941216130614060506089522
:100C7000092E0394000C11F4882352F0BB0F40F4AA
:100C8000BF2B11F460FF04C06F5F7F4F8F4F9F4FEA
:100C9000089557FD9058440F551F59F05F3F71F06C
:100CA0004795880F97FB991F61F09F3F79F08795D3
:100CB0000895121613061406551FF2CF4695F1DF5C
:100CC00008C0161617061806991FF1CF86957105EC
:100CD000610508940895E894BB2766277727CB0120
:100CE00097F908958ADF08F48FEF08950AD0C0CFEE
:100CF000B1DF28F0B6DF18F0952309F0A2CFA7CF17
:100D0000EBCFC7DFA8F39923D9F35523C9F3950F88
:100D100050E0551FAA27EE27FF27BB270024089481
:100D2000679520F4E20FF31FB41F0A1E220F331F32
:100D3000441FAA1F6695A9F7779530F4F30FB41FE7
:100D40000A1E121E08F46395330F441FAA1F221FA8
:100D5000769599F7879520F4B40F0A1E121E631F2B
:100D6000440FAA1F221F331F8695A9F7862F712DC6
:100D7000602D11249F5750408AF0E1F088234AF0FB
:100D8000EE0FFF1FBB1F661F771F881F915050403B
:100D9000A9F79E3F510570F054CF9ECF5F3FECF313
:100DA000983EDCF3869577956795B795F795E79527
:100DB0009F5FC1F7FE2B880F911D9695879597F938
:100DC00008951BDF880B990B0895A1E21A2EAA1B28
:100DD000BB1BFD010DC0AA1FBB1FEE1FFF1FA217EB
:100DE000B307E407F50720F0A21BB30BE40BF50BE8
:100DF000661F771F881F991F1A9469F76095709571
:100E0000809590959B01AC01BD01CF010895EE0F37
:0E0E1000FF1F0590F491E02D0994F894FFCF98
:100E1E0000000000F4006F00C800A600BA003E01FA
:100E2E009700434C415020006E616E00696E660063
:080E3E006F7666002E000A0029
:00000001FF
